:1000000006308A00932E00000A108A100A11820717
:1000100028340C340134063420102010C822202A41
:10002000C827CE2320102010000020104324D52004
:10003000A025452A2027CF2420100001C822202AED
:10004000C827CE23A025452A2027CF240001201031
:10005000202AC8204E24A0214F274710201000013D
:100060002024451054244F27471054244510D42AE7
:1000700020002010CD274910D12A452A202AC82245
:1000800020100001A028D5225410542441274810E4
:10009000C327CE23000120102010A021D520A026A8
:1000A0004F10201020100001A028D52254105424F5
:1000B00041274810C327CE23000120102010A02183
:1000C000D52020224F27471020100001A010A1109A
:1000D000212AC822A029C124A110A11000014B246B
:1000E0004F274710542441274810C327CE23000030
:1000F00088108316881083120810831608100310C6
:1001000083124D0D7E39D0000830CF00CF0803197F
:10011000A22850088039803C0319902807119128A3
:100120000715201120088316870083128814831670
:10013000881003108312D00D881083168810831244
:10014000CF0386280830CF00CF080319C0284E08F7
:100150008039803C0319AE280711AF2807152011FC
:1001600020088316870083128814831688100310D2
:100170008312CE0D8810831688108312CF03A42813
:1001800008148316081083128814831688108312AB
:100190000800CF0188108316881083120810831678
:1001A0000810031083124C0D7E398038CE000830C1
:1001B000CD00CD080319F5284E088039803C03197D
:1001C000E3280711E428071520112008831687006B
:1001D000831288148316881003108312CE0D8810A2
:1001E000831688108312CD03D9280830CD00CD089E
:1001F00003190F2988148316881003108312CF0D5A
:10020000A01420088316870000308312871801305D
:10021000CF048810831688108312CD03F7280814A2
:1002200083160810831288148316881083124F08CF
:10023000F8000800CB014908CC00C9207808CB00A1
:100240004A08FF3A4B05CC004908CD004C08CE00C7
:1002500078200800CB014908CC00C9207808CB00E1
:100260004B084A04CC004908CD004C08CE00782049
:1002700008000814831608108312071420102008A1
:100280008316870083120714201020088316870026
:1002900049294A29000083120710201020088316DC
:1002A00087005229532900008312071420102008C8
:1002B000831687005B295C29000001308312CD0082
:1002C0000F30CE0078206429652900002A30CD0047
:1002D0008D30CE0078202B30CD003E30CE007820FF
:1002E0002D30CD001E30CE0078202C30CD00CE0138
:1002F00078201530CD004030CE0078201130CD0070
:100300003D30CE0078201430C9000330CA001A21D5
:100310001430CC00C9207808B1001430C900033073
:10032000CA002A218A110A12C22E35308400831392
:1003300000080319A8290630F800F701F70B9E29D9
:10034000F80B9D297B30F700F70BA429800B9B2924
:1003500008000830F8000430F700F70BAD298711CA
:10036000A0112008831687000330F700F70BB62989
:100370008312C20D0712031CC329201620088316FE
:100380008700C729831220122008831687000000E7
:100390008312A0152008831687008312871DCE299B
:1003A000F80BAB290430F700F70BD4298711A01103
:1003B0002008831687000000831220162008831669
:1003C00087000330F700F70BE3290330F700F70B42
:1003D000E7298312A0152008831687008312871D42
:1003E000EF29F8010330F700F70BF429071A781406
:1003F0008711A0112008831687008312071220128C
:10040000200883168700831208004008003A031969
:100410000D2A013A0319322A582A3F0EF700F0300C
:10042000F70577082504C100C200A92100003F0E8E
:10043000F700F030F705770804382504C100C20042
:10044000A9210230F700F70B232A262A00003F0ECD
:10045000F700F030F7057708FB392504C100C2002A
:10046000A921582A3F0EF700F030F7057708013828
:100470002504C100C200A92100003F0EF700F030A2
:10048000F7057708013804382504C100C200A92106
:100490000230F700F70B4A2A4D2A00003F0EF70002
:1004A000F030F705770801382504C100C200A92102
:1004B000080020162008831687000430F700F70B89
:1004C0005F2A8312A0152008831687000330F700E7
:1004D000F70B682A83120712201220088316870060
:1004E0000430F700F70B722A83128711A01120083D
:1004F0008316870083122108C200A9213C0EBE008A
:100500000F30BE053E08BF003D08C00005223C0874
:100510000F39BE00BF003D08C00005222012200890
:100520008316870000008312A01520088316870019
:100530008312871D992A0430F700F70B9D2AA02A01
:10054000000020162008831687000430F700F70B00
:10055000A72A831208000130BC00BD0159220230D5
:10056000B50095210130A40008003108A10033082E
:10057000A2003208A3000B138B138B1BBC2A323052
:10058000B500952120162008831687000430F70057
:10059000F70BC82A8312A0152008831687000330A2
:1005A000F700F70BD12A83120712201220088316B6
:1005B00087000430F700F70BDB2A83128711A011A4
:1005C00020088316870083122108C200A921BF01D9
:1005D000C00105220F30B50095210130B400340868
:1005E000033C031CFC2A0330BF00C0010522053078
:1005F000B5009521B40AEF2A0230BF00C0010522E0
:100600000530B500952120122008831687000000D0
:100610008312A0152008831687008312871D0E2BD6
:100620000430F700F70B122B152B000020162008C2
:10063000831687000430F700F70B1C2B8312B401DC
:100640003408033C031C2F2B34080420B500BC00E5
:10065000BD0159220530B5009521B40A202BAB22EB
:10066000C0308B048A110A12D02EB10803193B2B1B
:100670000830A5003C2BA5018A110A12D32E36089A
:1006800022020318462B2208B700482B3608B70071
:100690003708013A0319562B033A0319582B013A2C
:1006A00003195B2B073A03195E2B612BB901622BEF
:1006B0004030B900622B1430B900622B5430B900BD
:1006C000622BB901350823020318692B2308B800EF
:1006D0006B2B3508B800013038023907BA003A08E8
:1006E0008038BB00BC00BD015922080034080C3A18
:1006F0000319812B063A0319832B023A0319902B15
:10070000952BAB229A2BA40A2408220203188A2BC9
:100710000130A4000130B5002408B6003F239A2B15
:100720001030BC00BD0159229A2B3408BC000130A6
:10073000BD00592208000B08B1008B138316031764
:100740008C170C140000000083120313B11B8B17CD
:1007500003170C087F390319EF2B0313B10003179C
:100760000D080313B20003170F080313B300310879
:10077000B4007623320803178D00031333080317E0
:100780008F0003130B08B4008B13831603178C1709
:100790000C140000000083120313B41B8B17031703
:1007A0000C0D0E0D7F390319EF2B0313B100031746
:1007B0000D080313B20003170F080313B300310829
:1007C000B4007623320803178D0003133308031790
:1007D0008F008D0A03198F0A03139B2B0317031332
:1007E00008000230C300C401C5013B080E3A0319DA
:1007F000FD2B023A0319022C072C1230C4001030D2
:10080000C500072C7730C4003030C500072C4408E1
:100810008038C9000230CD004908CE00782004306D
:10082000C9008030CA001A210A30C9008030CA00CD
:100830002A210130CD00CE017820C8013E084802AF
:100840000318312C48083C07840083133D18831794
:100850000008C9000930CD004908CE007820C80A38
:100860001E2C0130CD003B08CE0078203B080C3C0C
:10087000031D3F2C0D30C9008030CA002A21FF30F3
:10088000C8000430CC00C9207808C700C803C808D5
:100890000319502C4718502C470845050319412CC3
:1008A0000D30C9008030CA001A21C8080319C82CAD
:1008B0000630CC00C92078081B39031DC62CC301A3
:1008C0004708440501390319672C0130C3003B0870
:1008D0000C3C031DC52C0A30CC00C9207808C70089
:1008E0000C30CC00C92078080739C600C6080319A7
:1008F0008A2C410884008313421883170130470271
:10090000F700F70DF70DF70DF830F70577084607F4
:100910008000972C41088400831342188317470DE9
:10092000F700F70DF70DF830F70577088000C708D6
:10093000031D9C2C0130C7004708103C0318A22C53
:100940001030C700C801470848020318BE2C4808E9
:100950003F07F8004008FA000318FA0A7808C900AF
:100960007A08CA000930CC00C920490884008313E2
:100970004A18831778088000C80AA32C48083F0744
:1009800084008313401883178001C82C0230C300F1
:100990004308F8000800B3012D30B2002630B4003F
:1009A0003308B6003208B5000D30CD000730CE0058
:1009B00078203508840083133618831734088000A4
:1009C0000C30BB003608BD003508BC000130BE004D
:1009D0003608C0003508BF00C2013830C100F1231D
:1009E0007808B700B708031DF92C3808103C031924
:1009F000FB2C0230B7003708F800F808031D042D5F
:100A00000130F800062D062D0030F800F808031913
:100A1000B12DB3012730B2003308B6003208B5005B
:100A2000B9010D30CD00CE01782035088400831344
:100A30003618831793308000013035078400831304
:100A400036188317203080000830C900CA001A21E8
:100A50000C30BB003608BD003508BC000230BE00BB
:100A60003608C0003508BF00C2013A30C100F1238A
:100A70007808B700B708031D582DB8013808033CA3
:100A8000031C4C2D38083507840083133618831750
:100A90000008B906B80A3E2D0430350784008313D8
:100AA00036188317000839020319582D0230B70091
:100AB0003708F8007808B400053032078400831343
:100AC000331883178001B408031D6A2D0130F80024
:100AD0006C2D6C2D0030F800F8080319B12DB10110
:100AE0003108033C031CA22D2730310784008313F7
:100AF0000008B2003208B3005730B400B41B912D87
:100B00000F30F700330EF7050A30770203188B2DEC
:100B10003030F7078D2D3408F70777080C1E8E2D1F
:100B200099000F30B3050A3033020318992D303085
:100B30009B2DB4133408B30733080C1E9D2D990068
:100B4000B10A702D0D300C1EA32D99000A300C1E19
:100B5000A72D99000230B2009630B5009521B20B56
:100B6000AC2D5030B300B401B8013330B7000230BF
:100B7000B900BB013530BA000530C9000430CA00E5
:100B80001A210A30C9008030CA002A21BC01390864
:100B90003C020318DE2D3808FA003708B70A03199B
:100BA000B80A840083137A1883170008BE0009303E
:100BB000CD003E08CE007820BC0AC72D0130CD0004
:100BC0000330CE007820FF30BC000530CC00C920B7
:100BD0007808BD00BC03BC080319F02D3D1DE52DB0
:100BE0003A08F8003B08FA003A08BE003B08BF008C
:100BF0002230CC00C9203E08840083133F1883179D
:100C00007808800001303A07F8003B08FA00031822
:100C1000FA0A7808BE007A08BF002130CC00C9204B
:100C20003E08840083133F1883177808800008303B
:100C3000C9008030CA001A210C30BB00BD0133301E
:100C4000BC000430BE00C0013330BF00C2013230EE
:100C5000C100F1230830C900CA001A218A110A1202
:100C60001C2F320B502E831605108312051464308E
:100C7000B500952183160510831205106430B50068
:100C8000952183160510831205146430B500952153
:100C900083160510831205106430B50095215F2E70
:100CA00083160510831205140430B300AF30B5006D
:100CB0009521B30B562E83160510831205100800DC
:100CC0008C1E8E2E8C1E622E1A08AE002E08323C10
:100CD000031D732E83168813831288170130B20008
:100CE00031260130B1002E08313C031D802E8316C1
:100CF0008813831288130130B20031260230B1000C
:100D00002E08303C031D882EB20131260330B1007D
:100D10002E084C3C031D8E2E0430B1003108F80023
:100D20008A110A121D2F03081F398300FF30A0000B
:100D3000813083169900A630980090308312980075
:100D40000130A4000830A500AF01B00183161F14C4
:100D50009F141F159F1107309C0083138312A60157
:100D600031300C1EB12E99000D300C1EB52E99009D
:100D70000A300C1EB92E9900B00183168813831215
:100D800088133929003083168800850005108312E6
:100D900005104E30B1001030B2000230B300B52A59
:100DA0000130B100352BB008031D192F8C1EE22E27
:100DB0008C1ED82E1A08AE002E084B3C031DE22EC6
:100DC0000130B0000130B500B6003F230C300317EE
:100DD0008D0000308F0003139B230130B5000230DB
:100DE000B6003F23153003178D0000308F0003132A
:100DF0009B23300B192F0130B500B6003F231E3066
:100E000003178D0000308F0003139B230130B500C2
:100E10000230B6003F23273003178D0000308F00CB
:100E200003139B230C30B100FA30B5009521B10BB0
:100E3000142F300BAB2FCB2C602E7808AF00AF08EF
:100E4000031D3A2F0130B500B6003F2330300317A1
:100E50008D0000308F0003139B230130B50002305A
:100E6000B6003F23393003178D0000308F00031385
:100E70009B23AB2F2F0B5D2F0330AF000130B5004C
:100E8000B6003F23423003178D0000308F0003135C
:100E90009B230130B5000230B6003F234B300317CF
:100EA0008D0000308F0003139B230830B100FA300F
:100EB000B5009521B10B572FAB2F2F08023C031D16
:100EC000822F0330AF000130B500B6003F2354300D
:100ED00003178D0000308F0003139B230130B500F2
:100EE0000230B6003F235D3003178D0000308F00C5
:100EF00003139B230830B100FA30B5009521B10BE4
:100F00007C2FAB2F2F08033C031DA72F0330AF000E
:100F10000130B500B6003F23663003178D00003066
:100F20008F0003139B230130B5000230B6003F232E
:100F30006F3003178D0000308F0003139B230830A0
:100F4000B100FA30B5009521B10BA12FAB2F2F08BE
:0A0F5000043C0319B001D32E630026
:02400E00723FFF
:00000001FF
;PIC16F877A
;CRC=662F  CREATED="18-Apr-21 21:37"
